:020000040800F2
:10000000780700207D1100087102000873020008C3
:10001000770200087B0200087F0200080000000051
:100020000000000000000000000000008302000843
:10003000850200080000000087020008890200080D
:1000400097110008971100089711000897110008F0
:1000500097110008971100089711000897110008E0
:1000600097110008971100089711000897110008D0
:1000700097110008971100089711000897110008C0
:1000800097110008971100089711000897110008B0
:1000900097110008971100089711000897110008A0
:1000A0009711000897110008971100089711000890
:1000B0009711000897110008971100089711000880
:1000C0009711000897110008971100089711000870
:1000D00097110008F3100008971100089711000805
:1000E0009711000897110008971100089711000850
:1000F0009711000897110008971100089711000840
:10010000971100089711000897110008971100082F
:10011000971100089711000897110008971100081F
:10012000971100089711000897110008971100080F
:1001300000F002F800F03FF80AA090E8000C8244BA
:100140008344AAF10107DA4501D100F034F8AFF297
:10015000090EBAE80F0013F0010F18BFFB1A43F0A5
:10016000010318471420000034200000103A24BF77
:1001700078C878C1FAD8520724BF30C830C144BF0C
:1001800004680C607047000000230024002500264E
:10019000103A28BF78C1FBD8520728BF30C148BFEA
:1001A0000B607047642901F0ED86002070471FB591
:1001B0001FBD10B510BD01F0ADFF1146FFF7F7FFF1
:1001C00000F008F801F0CBFF03B4FFF7F2FF03BC27
:1001D00000F034FF00F0C8FE4FF4A06000F0EEFF26
:1001E0004FF4165000F039FF00F092F900F0AAF930
:1001F00000201549086001201449C1F8900114A09D
:1002000001F080FE1FE000F079FA002412E01548AA
:10021000025D214614A001F075FE601CC11700EBC1
:100220005171C910A0EBC10111B90DA001F06AFE16
:10023000601CC4B2182CEADB09A001F063FE40F296
:10024000DC5000F0CEFEDEE79401234200002242A3
:100250000D0ACDE2B2BFD7B4CCACB2B6BBF10D0A39
:100260000D0A0000380000204425643D2564090083
:10027000704700BFFEE700BFFEE700BFFEE700BF1C
:10028000FEE7704770477047704700000CB50020CC
:10029000019000909248006840F4803090490860D6
:1002A00000BF8F48006800F4003000900198401CA7
:1002B0000190009818B90198B0F5A06FF1D1884865
:1002C000006800F4003010B10120009001E000202F
:1002D0000090009801285CD18248006840F010002E
:1002E000804908600846006820F00300086008465E
:1002F000006840F00200086079484068784948602A
:100300000846406848600846406840F4806048609D
:100310000846C06A744908407149C8620846C06A04
:10032000724908436E49C8620846006840F0806020
:10033000086000BF6A48006800F000600028F9D03B
:100340006748406820F47C1065494860084640686A
:1003500040F4E81048600846006840F0807008608B
:1003600000BF5F48006800F000700028F9D05C48CA
:10037000406820F003005A4948600846406840F051
:100380000200486000BF5648406800F00C00082892
:10039000F9D10CBD10B5FFF779FF10BD10B550486D
:1003A000006840F001004E49086008464068504926
:1003B00008404B494860084600684E490840484993
:1003C00008600846006820F48020086008464068FD
:1003D00020F4FE0048600846006820F0A050086045
:1003E0004FF47F0088600020C862FFF7D3FF4FF012
:1003F00000604149086010BDF0B5002100200023D5
:100400000024002200250026354F7F6807F00C01EC
:1004100021B1042908D008294BD10BE0374FDFF870
:10042000E0C0CCF800704AE0364FDFF8D4C0CCF81A
:10043000007044E02A4F7F6807F47010284F7F68EF
:1004400007F48033800C0D2801D0801C00E00620CA
:1004500033B92D4F4743DFF8A8C0CCF8007027E030
:100460001F4FFF6A07F480341D4FFF6A07F00F0724
:100470007A1C44B9234FB7FBF2F74743DFF880C03B
:10048000CCF8007014E0164FFF6AC7F303177D1C09
:10049000134FFF6AC7F30327BE1C1A4FB7FBF5F7CC
:1004A0007743B7FBF2F74743DFF854C0CCF800704E
:1004B00005E0124FDFF848C0CCF8007000BF00BF65
:1004C000074F7F68C7F30317DFF840C01CF8071019
:1004D0000B4F3F68CF40DFF828C0CCF80070F0BD6C
:1004E000001002400020024000F0FEFF4406010020
:1004F0000000FFF0FFFFF6FE08ED00E000127A00BA
:100500000000002040787D0100093D00040000202B
:1005100008B50121402001F08AFA2020ADF8000042
:1005200010208DF8030003208DF80200694604486E
:1005300000F012FF2021024800F0BBFF08BD0000C0
:100540000018014008B501217D2001F070FA032058
:100550008DF8020001215E4800F0CFFF4FF47F408C
:10056000ADF8000010208DF803006946594800F0EE
:10057000F3FE4FF47F41574800F09BFFFF20ADF89A
:10058000000048208DF803006946524800F0E4FE60
:10059000E420ADF8000010208DF8030069464E48B5
:1005A00000F0DAFEA4214C4800F085FF40214A48C3
:1005B00000F07FFF4FF47E70ADF8000010208DF842
:1005C00003006946454800F0C7FE4FF47C7143487C
:1005D00000F06FFF0821414800F06DFF1F20ADF8CB
:1005E000000010208DF8030069463D4800F0B4FE7D
:1005F0001F213B4800F05DFF40F61C60ADF8000095
:1006000010208DF803006946364800F0A5FE4FF42F
:100610006061344800F04FFF1C21324800F049FF70
:100620000120314908603149C1F89801304908601A
:10063000091D08602C4908390860091F0860091F56
:1006400008602949091F08602A49086029490C31B6
:100650000860091F086027491031086024490831E3
:1006600008604FF47F411B4800F025FF012020491E
:1006700024310860091F0860091F086000201C4918
:1006800024310860091F0860091F08604FF47F418A
:10069000104800F00EFF0120174908601649083184
:1006A00008601449091F0860091F08601149091DE5
:1006B00008600020104908600F49083108600D49A2
:1006C000091F0860091F08600A49091D086008BD64
:1006D000000230000014014000080140000C0140FD
:1006E0000010014000180140900122420000214208
:1006F00088012342948121429401214210B50024B3
:100700000020F8490860F848D0F81C01D8B1F74833
:100710000068C0B1F548001F0068A0B1F348083870
:10072000006880B1F1480C38006860B1EF481038BB
:10073000006840B1ED481438006820B1EB48183823
:10074000006800285AD1082000F04BFCE748001D43
:10075000006818B90120E649087002E00020E44969
:100760000870E248006818B90120E149487002E0C9
:100770000020DF494870DD48001F006818B90120DB
:10078000DB49887002E00020D9498870D7480838D2
:10079000006818B90120D649C87002E00020D44989
:1007A000C870D2480C38006818B90120D0490871C7
:1007B00002E00020CE490871CC481038006818B912
:1007C0000120CB49487102E00020C9494871C7485F
:1007D0001438006818B90120C549887102E000206A
:1007E000C3498871C1481838006818B90120C04948
:1007F000C8710CE00020BE49C87108E0002404E084
:100800000020BB490855601CC4B2082CF8DB01204D
:10081000B44908600020B749C1F89801B348001DE9
:100820000068D8B1B1480068C0B1B048001F006886
:10083000A0B1AE480838006880B1AC480C380068F8
:1008400060B1AA481038006840B1A8481438006860
:1008500020B1A6481838006800285AD1082000F0B6
:10086000C0FBA248001D006818B90120A049087209
:1008700002E000209E4908729C48006818B90120D7
:100880009B49487202E00020994948729748001F2E
:10089000006818B901209649887202E00020944946
:1008A000887292480838006818B901209049C872C7
:1008B00002E000208E49C8728C480C38006818B9D4
:1008C00001208B49087302E000208949087387489A
:1008D0001038006818B901208549487302E00020EB
:1008E0008349487381481438006818B90120804949
:1008F000887302E000207E4988737C4818380068BD
:1009000018B901207A49C8730EE000207849C873ED
:100910000AE0002406E00021754A04F108001154A1
:10092000601CC4B2082CF6DB01207349086000206B
:100930007249C1F8A4016D48001D0068D0B16B4830
:100940000068B8B16948001F006898B16748083866
:10095000006878B165480C38006858B163481038B1
:10096000006838B161481438006818B15F48183819
:100970000068A8BB082000F034FB5C48001D00683C
:1009800018B901205A49087402E0002058494874F7
:100990005648006818B901205549487402E0002003
:1009A000534948745148001F006818B90120504944
:1009B000887402E000204E4988744C48083800686A
:1009C00018B901204A49C87402E000204849C87497
:1009D00046480C38006820B901204549087503E0F5
:1009E00024E000204249087540481038006818B9D2
:1009F00001203F49487502E000203D4948753B48C9
:100A00001438006818B901203949887502E00020BF
:100A10003749887535481838006818B901203449B5
:100A2000C8750EE000203249C8750AE0002406E0CF
:100A300000212F4A04F110001154601CC4B2082C8C
:100A4000F6DB01202E49086010BD10B50446002CCD
:100A500076D0112C15D2DFE804F0D40915212D39F8
:100A6000555F6974808C98A4B0BCC80000202449EC
:100A7000183908601C49C1F8BC0101202049183907
:100A80000860BEE000201E49183908601649C1F808
:100A9000B80101201A4918390860B2E0002018494D
:100AA000183908601049C1F8B401012014491839F7
:100AB0000860A6E000201249183908600A49C1F808
:100AC000B00101200E49183908609AE000200C4955
:100AD000183908600449C1F8AC01012008491839E7
:100AE00008608EE09001224200802242188122425A
:100AF000380000200000214298012142008021425C
:100B0000A48121420020FE490860FE49C1F8A801E5
:100B10000120FB49086074E00020F9490860F949A8
:100B2000C1F8A4010120F64908606AE00020F449F8
:100B30000860F449C1F8A0010120F149086060E0B3
:100B400060E00020EE490C310860EE49C1F8BC01BC
:100B50000120EB490C31086053E00020E8490C31DA
:100B60000860E849C1F8B8010120E5490C31086086
:100B700047E00020E2490C310860E249C1F8B401C5
:100B80000120DF490C3108603BE00020DC490C31DA
:100B90000860DC49C1F8B0010120D9490C31086076
:100BA0002FE00020D6490C310860D649C1F8AC01CD
:100BB0000120D3490C31086023E00020D0490C31DA
:100BC0000860D049C1F8A8010120CD490C31086066
:100BD00017E00020CA490C310860CA49C1F8A401D5
:100BE0000120C7490C3108600BE00020C4490C31DA
:100BF0000860C449C1F8A0010120C1490C31086056
:100C000000BF02E00A2000F0ECF910BD10B5002092
:100C1000BD490860BD480078002854D0BC48006831
:100C2000D8B1BB48001F0068B8B1B948083800689F
:100C300098B1B7480C38006878B1B54810380068EA
:100C400058B1B3481438006838B1B1481838006852
:100C500018B1AF481C380068A0BB082000F0C1F9EB
:100C60000020AA490870AA48006808B9012010BDF0
:100C7000A748001F006808B90220F8E7A448083810
:100C8000006808B90320F2E7A1480C38006808B9E9
:100C90000420ECE79E481038006808B90520E6E714
:100CA0009B481438006808B90620E0E798481838CF
:100CB000006808B90720DAE795481C38006860BB6F
:100CC0000820D4E7FFE792480068012825D1904822
:100CD000001F0068012820D18D48083800680128CD
:100CE0001BD18B480C380068012816D18848103871
:100CF0000068012811D186481438006801280CD1F9
:100D0000834818380068012807D181481C380068DA
:100D1000012802D100207D49087001207A4908602D
:100D200000207C49C1F88C017B480078002854D011
:100D300077480068D8B17648001F0068B8B1744899
:100D40000838006898B172480C38006878B170486B
:100D50001038006858B16E481438006838B16C48D3
:100D60001838006818B16A481C380068A0BB082011
:100D700000F037F90020684908706548006808B934
:100D8000092074E76248001F006808B90A206EE76E
:100D90005F480838006808B90B2068E75C480C38E1
:100DA000006808B90C2062E759481038006808B993
:100DB0000D205CE756481438006808B90E2056E745
:100DC00053481838006808B90F2050E750481C38BD
:100DD000006860BB10204AE7FFE74D480068012823
:100DE00025D14B48001F0068012820D14848083809
:100DF000006801281BD146480C380068012816D12C
:100E0000434810380068012811D14148143800685F
:100E100001280CD13E4818380068012807D13C4809
:100E20001C380068012802D100203B4908700120CD
:100E30003549091D0860002019E738480078344911
:100E4000A0310860354840782E49C1F8B8013348D0
:100E50008078C1F8B4013148C078C1F8B0012F489A
:100E60000079C1F8AC012D484079C1F8A8012B48A0
:100E70008079C1F8A4012948C079254984310860E6
:100E8000012021492431086000202249C1F8AC0129
:100E90002248007A1B49C1F8BC012048407AC1F8B9
:100EA000B8011E48807AC1F8B4011C48C07AC1F864
:100EB000B0011A48007BC1F8AC011848407BC1F86A
:100EC000A8011648807BC1F8A4011448C07B1049D2
:100ED0008431086001200C492031086000200D4950
:100EE000C1F8A8010D48007C0649C1F8BC010B48B7
:100EF000407CC1F8B8010948807CC1F8B4010FE01A
:100F00008C8121420080224288012342140000206B
:100F10001C812242000023421500002038000020DE
:100F20000D48C07CC1F8B0010B48007DC1F8AC0190
:100F30000948407DC1F8A8010748807DC1F8A40197
:100F40000548C07D0549086001200549086000206A
:100F50000449C1F8A401704738000020A081224252
:100F6000A40123420000234210B56FF0040000F0FA
:100F700074F92E4800682E49B0FBF1F02D49087035
:100F80000846007800EB4001C1EBC0104FF6FF713E
:100F900001EAC0002849088010BD0146254A1278A0
:100FA0004A434FF0E0235A6100229A611A461269BF
:100FB00042F001021A6100BF4FF0E022106900F018
:100FC00001021AB100F48032002AF5D04FF0E0227D
:100FD000126922F001024FF0E0231A6100229A61A7
:100FE00070470146144A12884A434FF0E0235A6181
:100FF00000229A611A46126942F001021A6100BF8A
:101000004FF0E022106900F001021AB100F48032C2
:10101000002AF5D04FF0E022126922F001024FF0D1
:10102000E0231A6100229A6170470000000000204E
:1010300000127A001600002018000020014600BFB0
:10104000704700BF494A128802F04002002AF9D0D6
:10105000C2B2464B1B1D1A80704710B586B00446BD
:10106000012144F2040000F0E2FC4FF40070ADF8FE
:10107000140003208DF8160018208DF8170005A91C
:101080003B4800F069F94FF48060ADF8140004208B
:101090008DF8170005A9364800F05EF925208DF877
:1010A000000003208DF801008DF8020001208DF86A
:1010B0000300684600F087F801940020ADF80800AE
:1010C000ADF80A00ADF80C00ADF810000C20ADF83A
:1010D0000E0001A9254800F052FD012240F22551E1
:1010E000224800F0E4FD0121204800F0D4FD06B0C4
:1010F00010BD10B540F225511C4800F0BDFE10B3E4
:101100001A4800F039FEC4B21A48008800F40040C2
:10111000C8B91848008800F4804060B10A2C03D098
:1011200000201449088020E01248008840F4004064
:101130001049088019E00D2C06D10E48008840F4B3
:1011400080400C49088010E00A480088C0F30D0078
:1011500009490C5407480088401C06490880084685
:101160000088C72801DD0020088010BD003801403C
:10117000000801402000002050000020094880475E
:1011800009480047FEE7FEE7FEE7FEE7FEE7FEE769
:10119000FEE7FEE7FEE7FEE704480549054A064B81
:1011A000704700009D03000831010008780100200D
:1011B000780700207803002078030020314901439C
:1011C000314A1160704770B5002100230F22C478A6
:1011D00004B32D4C246804F4E064C4F5E064210AEF
:1011E000C1F10403CA40447804FA03F1847814403E
:1011F00021430901254C0678A155047804F01F0508
:101200000124AC4005786D11AD0005F1E025C5F86D
:10121000004109E0047804F01F050124AC401C4D96
:101220000678761145F8264070BD1A4A0A400243F6
:10123000154B1B1F1A60704739B1134A121D1268F3
:101240000243114B1B1D1A6006E00F4A121D126863
:1012500082430D4B1B1D1A607047042808D14FF0C4
:10126000E021096941F004014FF0E022116107E03B
:101270004FF0E021096921F004014FF0E0221161F3
:10128000704700000000FA050CED00E000E400E00B
:1012900080E100E080FFFF1F10B50446CC48844287
:1012A00008D10121042000F0E9FB0021042000F016
:1012B000E5FB46E0C748844208D10121082000F040
:1012C000DDFB0021082000F0D9FB3AE0C24884424F
:1012D00008D10121102000F0D1FB0021102000F0E6
:1012E000CDFB2EE0BD48844208D10121202000F032
:1012F000C5FB0021202000F0C1FB22E0B848844259
:1013000008D10121402000F0B9FB0021402000F06D
:10131000B5FB16E0B348844208D10121802000F0DB
:10132000ADFB0021802000F0A9FB0AE0AE4884421A
:1013300007D10121801500F0A1FB0021A01500F0CC
:101340009DFB10BD10B50121084600F097FB002160
:10135000012000F093FB10BD2DE9F041024600256D
:101360000026002000230024002791F803C00CF081
:101370000F0591F803C00CF0100CBCF1000F03D066
:1013800091F802C04CEA050591F800C0BCF1000FCD
:1013900031D0146800202BE04FF0010C0CFA00F360
:1013A000B1F800C00CEA03069E4220D183004FF042
:1013B0000F0C0CFA03F7BC4305FA03FC4CEA0404D7
:1013C00091F803C0BCF1280F06D14FF0010C0CFAC4
:1013D00000FCC2F814C00AE091F803C0BCF1480F49
:1013E00005D14FF0010C0CFA00FCC2F810C0401CF3
:1013F0000828D1D31460B1F800C0BCF1FF0F34DD70
:10140000546800202EE000F1080C4FF0010808FAA3
:101410000CF3B1F800C00CEA03069E4221D1830010
:101420004FF00F0C0CFA03F7BC4305FA03FC4CEA2F
:10143000040491F803C0BCF1280F05D100F1080C99
:1014400008FA0CF8C2F8148091F803C0BCF1480FF8
:1014500007D100F1080C4FF0010808FA0CF8C2F8A7
:101460001080401C0828CED35460BDE8F0814FF6B0
:10147000FF710180022181700421C1707047024612
:10148000002093680B400BB1012000E00020704762
:101490000146886880B2704702460020D3680B403E
:1014A0000BB1012000E0002070470146C86880B2FF
:1014B000704701617047416170470AB1016100E006
:1014C00041617047C16070474FF480320A438261C6
:1014D0008161826182698269704702460020434BC4
:1014E00018684FF68073184040EA021008433F4BDB
:1014F000186070473E49C8617047F0B50A4600233E
:1015000000240021002500F00046B6F1004F02D172
:10151000364EF16901E0354E7168C0F3034583B280
:1015200000F44016B6F5401F08D121F070612F4E2F
:10153000766826F070662D4F7E6012E000F480160B
:10154000B6F5801F06D1032606FA05F4A14341F043
:10155000706106E0460D360103FA06F6B14341F02C
:10156000706122B1460D360103FA06F6314300F0F0
:101570000046B6F1004F02D11C4EF16101E01B4E56
:101580007160F0BD30B500228B071C0F0F2303FAEA
:1015900004F2164B08338C1053F824309343134C49
:1015A00008348D1044F8253023468C1053F824302D
:1015B0008C07240F00FA04F423430C4C08348D10DC
:1015C00044F8253030BD0A49DC310860704700001E
:1015D00000080140000C01400010014000140140CF
:1015E00000180140001C01400020014000000140A3
:1015F00000002042FB48006840F00100F949086003
:1016000008464068F8490840F649486008460068BE
:10161000F6490840F34908600846006820F4802035
:1016200008600846406820F4FE00486008460068EC
:1016300020F0A05008604FF47F0088600020C8624E
:101640007047E849096821F48031E64A1160114683
:10165000096821F480211160B0F5803F03D0B0F516
:10166000802F0ED106E0DF49096841F48031DD4A60
:10167000116007E0DB49096841F4A021D94A1160F3
:1016800000E000BF00BF704710B5014600220023F4
:1016900000204A11012A02D1D24C236806E0022A16
:1016A00002D1D04C236A01E0CE4C636A01F01F02E4
:1016B000012494401C400CB1012000E0002010BD2A
:1016C00038B5002000900024002500BF3120FFF72E
:1016D000DBFF05460098401C00900098B0F5A06F15
:1016E00001D0002DF2D03120FFF7CEFF08B1012448
:1016F00000E00024204638BD01460020B94A1068A9
:1017000020F0F80040EAC10010607047B849086056
:10171000704702460020B34B586820F4741042EA28
:1017200001031843AF4B58607047B14908667047D2
:1017300002460020AB4BD86AAE4B184042EA010388
:101740001843A84BD862704701460020A54AD06ACA
:1017500020F0F0000843D062704701460020A14A03
:10176000D06A20F470600843D0627047A049886650
:101770007047014600209B4AD06A20F4704008431D
:10178000D06270479A490867704701460020954A21
:10179000506820F00300084350607047914840684B
:1017A00000F00C007047014600208E4A506820F07F
:1017B000F00008435060704701460020894A506895
:1017C00020F4E06008435060704701460020854ADD
:1017D000506820F4605040EAC1005060704729B161
:1017E000804A527A02437F4B5A7204E07D4A527A11
:1017F00082437C4B5A7270477D49D83108607047EC
:1018000001460020774A506820F440400843506069
:1018100070477949086070477749091D086070472B
:101820000021704A203211706E4A82F8201001287F
:1018300002D004280AD104E001216A4A2032117042
:1018400005E00521674A2032117000E000BF00BFAB
:1018500070476A49086070476249096A0143614AF2
:101860001162704765494439086070472DE9F041BD
:1018700000210022002500230026002400278C469A
:10188000DFF86081D8F8048008F00C0121B1042948
:1018900007D0082959D109E0DFF86481C0F8008039
:1018A00058E0DFF86081C0F8008053E0DFF8348151
:1018B000D8F8048008F47012DFF82881D8F8048082
:1018C00008F48035920C0D2A01D0921C00E006220B
:1018D00035B9DFF8348102FB08F8C0F8008033E046
:1018E000DFF80081D8F82C8008F48036DFF8F48027
:1018F000D8F82C8008F00F0808F1010446B9DFF889
:101900000481B8FBF4F808FB02F8C0F800801BE083
:10191000DFF8D080D8F82C80C8F3031808F101074D
:10192000DFF8C080D8F82C80C8F3032808F1020C37
:10193000DFF8D080B8FBF7F808FB0CF8B8FBF4F838
:1019400008FB02F8C0F8008004E0DFF8B480C0F8BB
:10195000008000BF00BFDFF88C80D8F8048008F05A
:10196000F0010909DFF8A48018F80130D0F80080F0
:1019700028FA03F8C0F80480DFF86880D8F80480FB
:1019800008F4E061090ADFF8848018F80130D0F823
:10199000048028FA03F8C0F80880DFF84880D8F8F7
:1019A000048008F46051C90ADFF8608018F801303B
:1019B000D0F8048028FA03F8C0F80C80DFF82480FF
:1019C000D8F8048008F44041890BDFF8448018F807
:1019D0000130D0F80C80B8FBF3F8C0F81080BDE8F7
:1019E000F0810000001002400000FFF0FFFFF6FE53
:1019F00000004242F0FFFEFFC40542428004424222
:101A000000127A0040787D0100093D00220000208C
:101A10003200002029B1354A52690243334B5A61E2
:101A200004E0324A52698243304B5A61704729B10F
:101A30002E4A926902432D4B9A6104E02B4A926927
:101A400082432A4B9A61704729B1284AD2690243DE
:101A5000264BDA6104E0254AD2698243234BDA61DE
:101A6000704729B1214A926A0243204B9A6204E0EE
:101A70001E4A926A82431D4B9A62704729B11B4AE3
:101A8000D2680243194BDA6004E0184AD2688243F4
:101A9000164BDA60704729B1144A12690243134B9E
:101AA0001A6104E0114A12698243104B1A617047AF
:101AB0000F49086070470F49C86470470B49C871E7
:101AC00070470A48406A40F0807008494862704791
:101AD00001460020054A92680A400AB1012000E050
:101AE00000207047014988727047000000100240D2
:101AF000400442420000424210B50446FB48844282
:101B000009D101218803FFF7B9FF00214FF480407C
:101B1000FFF7B4FF32E0F648844209D101214804BE
:101B2000FFF7B9FF00214FF40030FFF7B4FF25E0C5
:101B3000F048844209D101218804FFF7ACFF00215D
:101B40004FF48020FFF7A7FF18E0EB48844209D14B
:101B50000121C804FFF79FFF00214FF40020FFF789
:101B60009AFF0BE0E548844208D101210805FFF700
:101B700092FF00214FF48010FFF78DFF10BD2DE97B
:101B8000F04786B005460E460024A24600BFA14697
:101B90000027B08900B100BF2F462C8A4CF6FF7099
:101BA0000440F08804432C82AC894EF6F3100440C4
:101BB000B08831890843718908430443AC81AC8AF9
:101BC0004FF6FF400440B0890443AC8201A8FFF700
:101BD0004DFEC648874202D1DDF810A001E0DDF8D5
:101BE0000CA0A88900F4004040B10AEBCA0000EB49
:101BF0000A1031684900B0FBF1F807E00AEBCA00AF
:101C000000EB0A1031688900B0FBF1F86420B8FBE2
:101C1000F0F004012009642101FB1089A88900F477
:101C2000004040B1322000EBC900B0FBF1F000F001
:101C30000700044308E0322000EB09106421B0FBE8
:101C4000F1F000F00F0004432C8106B0BDE8F087EE
:101C50004FF41651016000218180C18001810C2167
:101C6000418100218181704710B502460020108A11
:101C70004FF2FF0318400B884C8823438C88234382
:101C8000CC8823431843108210BD0021018041807D
:101C90008180C180704721B1828942F400528281E3
:101CA00004E082894DF6FF731A4082817047F0B5D7
:101CB0000346002400260025002040F66A17B9429A
:101CC00000D100BF1846C1F3421401F01F060127DE
:101CD00007FA06F5012C01D10C3004E0022C01D1E9
:101CE000103000E014301AB107682F43076002E09B
:101CF0000768AF430760F0BD1AB1838A0B43838244
:101D000002E0838A8B4383827047028A4FF6F07326
:101D10001A400282028A0A430282704782894FF285
:101D2000FF731A40828182890A438281704721B100
:101D3000828942F00202828104E082894FF6FD73BB
:101D40001A4082817047028A4FF6DF731A4002827E
:101D5000028A0A430282704721B1028A42F4804219
:101D6000028204E0028A4BF6FF731A400282704737
:101D7000C1F308028280704701468888C0F30800DA
:101D80007047818941F0010181817047028BD2B295
:101D90000283028B42EA012202837047028B02F423
:101DA0007F420283028B0A430283704721B1828AF9
:101DB00042F02002828204E0828A4FF6DF731A40EA
:101DC0008282704721B1828A42F01002828204E04E
:101DD000828A4FF6EF731A408282704721B1828A5D
:101DE00042F00802828204E0828A4FF6F7731A40BA
:101DF0008282704721B1828942F40042828103E0ED
:101E00008289C2F30E028281704721B1828A42F434
:101E10000062828204E0828A4FF2FF731A4082825B
:101E20007047828A4FF6FB731A408282828A0A4385
:101E30008282704721B1828A42F00202828204E0EB
:101E4000828A4FF6FD731A40828270470246002054
:101E5000B1F5007F00D100BF13880B400BB101200A
:101E600000E00020704701F40072B2F5007F00D15D
:101E700000BFCA430280704770B5024600240023A9
:101E80000025002040F66A16B14200D100BFC1F320
:101E9000421501F01F03012606FA03F3012D02D1BA
:101EA0009689334006E0022D02D1168A334001E0C4
:101EB000968A33400C12012606FA04F41688344040
:101EC00013B10CB1012000E0002070BD10B500225C
:101ED000002340F66A14A14200D100BF0A12012477
:101EE0009440A3B2DC43048010BD000000380140E0
:101EF0000044004000480040004C004000500040BA
:101F0000704700000FB4044910B503AA029800F00E
:101F1000D3F810BC5DF814FB1C0000202DE9F04143
:101F20000E460446002020622046E168884730B310
:101F3000252805D0D4E901219047206A401CF2E70A
:101F4000E168204600278847050018D0A5F1410028
:101F5000192802D820354FF400673246294620461A
:101F60002760FEF71FF940B1012804D0F61D26F0C6
:101F700007060836D8E7361DD6E72846DAE7206A8E
:101F8000BDE8F0812DE9F04106460024106875296E
:101F9000314616A510D0AFF30080002802DA404287
:101FA00013A507E031688A0701D512A502E04907A9
:101FB00004D511A5012401E0AFF3008000210A221D
:101FC00006F1240709E0B0FBF2FCB0FBF2F302FBE0
:101FD0001C00303078541846491C0028F3D12346A1
:101FE0002A463046BDE8F04100F00CB80000000081
:101FF0002D0000002B0000002000000070477047FB
:10200000704770472DE9F0470D46994692460446C1
:1020100000F124080168880604D5E06921F0100168
:10202000216000E00120A84201DD471B00E00027FD
:10203000A1697A1902EB0900081AA0612078C0068C
:1020400002D42046AFF30080002608E0D4E9012145
:102050001AF806009047206A401C761C20624E4504
:10206000F4DB2078C0060AD52046AFF3008006E0F6
:10207000D4E9012130209047206A401C2062381E9C
:10208000A7F10107F4DC07E0D4E9012118F8050005
:102090009047206A401C2062281EA5F10105F3DC50
:1020A0002046AFF300802078000602D50220BDE86C
:1020B000F0870120FBE70000074B70B50D467B441D
:1020C00000F011F80446284600F020F810B14FF057
:1020D000FF3070BD204670BD81EFFFFF01694A1CD3
:1020E00002610878704700B58FB0CDE90131002159
:1020F000059105497944CDE9031011466846FFF77B
:102100000DFF0FB000BD0000E5FFFFFF007B00F0FA
:1021100080007047754600F02BF8AE460500694612
:10212000534620F00700854618B020B5FFF734F875
:10213000BDE820404FF000064FF000074FF00008C8
:102140004FF0000B21F00701AC46ACE8C009ACE849
:10215000C009ACE8C009ACE8C0098D46704710B5AD
:102160000446AFF300802046BDE81040FEF72CB8CF
:102170000048704718010020982100080000002046
:10218000380000006C010008D02100083800002051
:10219000400700008801000800A24A040000000077
:1021A0000000000001020304060708090101000005
:1021B000000000000000000000000000000001021C
:1021C00003040102030406070809020406080000CC
:0400000508000131BD
:00000001FF
