:020000040800F2
:100000006007002059080008FD010008FF010008F2
:1000100003020008070200080B02000800000000AD
:100020000000000000000000000000000F020008B7
:100030001102000800000000130200081502000869
:1000400073080008730800087308000873080008A4
:100050007308000873080008730800087308000894
:100060007308000873080008730800087308000884
:100070007308000873080008730800087308000874
:100080007308000873080008730800087308000864
:100090007308000873080008730800087308000854
:1000A0007308000873080008730800087308000844
:1000B0007308000873080008730800087308000834
:1000C0007308000873080008730800087308000824
:1000D00073080008CF0700087308000873080008B9
:1000E0007308000873080008730800087308000804
:1000F00073080008730800087308000873080008F4
:1001000073080008730800087308000873080008E3
:1001100073080008730800087308000873080008D3
:1001200073080008730800087308000873080008C3
:1001300000F002F800F03AF80AA090E8000C8244BF
:100140008344AAF10107DA4501D100F02FF8AFF29C
:10015000090EBAE80F0013F0010F18BFFB1A43F0A5
:1001600001031847E814000008150000103A24BFE6
:1001700078C878C1FAD8520724BF30C830C144BF0C
:1001800004680C607047000000230024002500264E
:10019000103A28BF78C1FBD8520728BF30C148BFEA
:1001A0000B6070471FB51FBD10B510BD01F01BFAE5
:1001B0001146FFF7F7FF00F009F801F039FA03B430
:1001C000FFF7F2FF03BC00F0A7FA000000F03AFAD4
:1001D00000F064F900F07CF90BE04FF47F41054832
:1001E00000F0D7FC01200449086040F2DC5000F028
:1001F00066FAF2E70014014090812142704700BF87
:10020000FEE700BFFEE700BFFEE700BFFEE7704766
:1002100070477047704700000CB5002001900090B7
:100220009248006840F480309049086000BF8F48D1
:10023000006800F4003000900198401C0190009884
:1002400018B90198B0F5A06FF1D18848006800F4A2
:10025000003010B10120009001E0002000900098D3
:1002600001285CD18248006840F010008049086095
:100270000846006820F0030008600846006840F067
:10028000020008607948406878494860084640683C
:1002900048600846406840F4806048600846C06A8C
:1002A000744908407149C8620846C06A72490843E7
:1002B0006E49C8620846006840F08060086000BF70
:1002C0006A48006800F000600028F9D0674840687C
:1002D00020F47C10654948600846406840F4E81006
:1002E00048600846006840F08070086000BF5F48C2
:1002F000006800F000700028F9D05C48406820F0E9
:1003000003005A4948600846406840F002004860CF
:1003100000BF5648406800F00C000828F9D10CBD19
:1003200010B5FFF779FF10BD10B55048006840F0D8
:1003300001004E49086008464068504908404B4952
:100340004860084600684E49084048490860084629
:10035000006820F4802008600846406820F4FE0011
:1003600048600846006820F0A05008604FF47F0005
:1003700088600020C862FFF7D3FF4FF0006041495A
:10038000086010BDF0B500210020002300240022E9
:1003900000250026354F7F6807F00C0121B10429A4
:1003A00008D008294BD10BE0374FDFF8E0C0CCF87C
:1003B00000704AE0364FDFF8D4C0CCF8007044E05B
:1003C0002A4F7F6807F47010284F7F6807F4803346
:1003D000800C0D2801D0801C00E0062033B92D4F81
:1003E0004743DFF8A8C0CCF8007027E01F4FFF6A32
:1003F00007F480341D4FFF6A07F00F077A1C44B9D9
:10040000234FB7FBF2F74743DFF880C0CCF800700A
:1004100014E0164FFF6AC7F303177D1C134FFF6AE2
:10042000C7F30327BE1C1A4FB7FBF5F77743B7FB9B
:10043000F2F74743DFF854C0CCF8007005E0124FE4
:10044000DFF848C0CCF8007000BF00BF074F7F68DE
:10045000C7F30317DFF840C01CF807100B4F3F68C5
:10046000CF40DFF828C0CCF80070F0BD001002408B
:100470000020024000F0FEFF440601000000FFF0F3
:10048000FFFFF6FE08ED00E000127A0000000020F9
:1004900040787D0100093D000400002008B50121DD
:1004A000402000F032FE2020ADF8000010208DF832
:1004B000030003208DF802006946044800F0BAFAF0
:1004C0002021024800F063FB08BD00000018014035
:1004D00008B501217D2000F018FE03208DF80200F0
:1004E00001214D4800F077FB4FF47F40ADF800004C
:1004F00010208DF803006946484800F09BFA4FF43D
:100500007F41464800F043FBFF20ADF80000482043
:100510008DF803006946414800F08CFAE420ADF8FC
:10052000000010208DF8030069463D4800F082FA73
:10053000A4213B4800F02DFB4021394800F027FB67
:100540004FF47E70ADF8000010208DF8030069466E
:10055000344800F06FFA4FF47C71324800F017FB1A
:100560000821304800F015FB1F20ADF800001020D6
:100570008DF8030069462C4800F05CFA1F212A48D8
:1005800000F005FB40F61C60ADF8000010208DF86F
:1005900003006946254800F04DFA4FF46061234896
:1005A00000F0F7FA1C21214800F0F1FA4FF47F41E6
:1005B0001A4800F0EEFA01201D4908601D49C1F8F3
:1005C000A8011B4908390860002019490860091F63
:1005D00008601849C1F8A4014FF47F410F4800F0AA
:1005E000D6FA0120144908601349083108601349FC
:1005F0000860091F086011490831086000200E4991
:1006000008600D49083108600C490860091F08603E
:100610000B49C1F8980108BD0002300000140140E8
:1006200000080140000C014000100140001801408A
:10063000AC012342000023429401214290812142D7
:100640000080214210B56FF0040000F074F92E48CC
:1006500000682E49B0FBF1F02D490870084600787B
:1006600000EB4001C1EBC0104FF6FF7101EAC00082
:100670002849088010BD0146254A12784A434FF0A8
:10068000E0235A6100229A611A46126942F001027F
:100690001A6100BF4FF0E022106900F001021AB1A8
:1006A00000F48032002AF5D04FF0E022126922F0E7
:1006B00001024FF0E0231A6100229A61704701465F
:1006C000144A12884A434FF0E0235A6100229A618B
:1006D0001A46126942F001021A6100BF4FF0E0228F
:1006E000106900F001021AB100F48032002AF5D03E
:1006F0004FF0E022126922F001024FF0E0231A616C
:1007000000229A61704700000000002000127A0069
:100710001400002016000020014600BF704700BFF3
:10072000494A128802F04002002AF9D0C2B2464B70
:100730001B1D1A80704710B586B00446012144F293
:10074000040000F0E2FC4FF40070ADF81400032048
:100750008DF8160018208DF8170005A93B4800F009
:1007600069F94FF48060ADF8140004208DF817008B
:1007700005A9364800F05EF925208DF80000032019
:100780008DF801008DF8020001208DF80300684605
:1007900000F087F801940020ADF80800ADF80A00D9
:1007A000ADF80C00ADF810000C20ADF80E0001A95A
:1007B000254800F052FD012240F22551224800F068
:1007C000E4FD0121204800F0D4FD06B010BD10B5B5
:1007D00040F225511C4800F0BDFE10B31A4800F04D
:1007E00039FEC4B21A48008800F40040C8B918485D
:1007F000008800F4804060B10A2C03D00020144926
:10080000088020E01248008840F400401049088029
:1008100019E00D2C06D10E48008840F480400C49A8
:10082000088010E00A480088C0F30D0009490C5404
:1008300007480088401C0649088008460088C728E9
:1008400001DD0020088010BD003801400008014093
:100850001C00002034000020094880470948004758
:10086000FEE7FEE7FEE7FEE7FEE7FEE7FEE7FEE760
:10087000FEE7FEE704480549054A064B70470000BD
:1008800029030008310100086001002060070020F2
:10089000600300206003002031490143314A1160A8
:1008A000704770B5002100230F22C47804B32D4C8B
:1008B000246804F4E064C4F5E064210AC1F104038F
:1008C000CA40447804FA03F18478144021430901B2
:1008D000254C0678A155047804F01F050124AC408E
:1008E00005786D11AD0005F1E025C5F8004109E07E
:1008F000047804F01F050124AC401C4D06787611E5
:1009000045F8264070BD1A4A0A400243154B1B1F8A
:100910001A60704739B1134A121D12680243114B15
:100920001B1D1A6006E00F4A121D126882430D4B10
:100930001B1D1A607047042808D14FF0E021096997
:1009400041F004014FF0E022116107E04FF0E02197
:10095000096921F004014FF0E022116170470000A5
:100960000000FA050CED00E000E400E080E100E0AA
:1009700080FFFF1F10B50446CC48844208D10121F6
:10098000042000F0E9FB0021042000F0E5FB46E034
:10099000C748844208D10121082000F0DDFB002176
:1009A000082000F0D9FB3AE0C248844208D1012176
:1009B000102000F0D1FB0021102000F0CDFB2EE034
:1009C000BD48844208D10121202000F0C5FB002150
:1009D000202000F0C1FB22E0B848844208D1012168
:1009E000402000F0B9FB0021402000F0B5FB16E0EC
:1009F000B348844208D10121802000F0ADFB0021E2
:100A0000802000F0A9FB0AE0AE48844207D1012112
:100A1000801500F0A1FB0021A01500F09DFB10BD8A
:100A200010B50121084600F097FB0021012000F0DD
:100A300093FB10BD2DE9F041024600250026002061
:100A400000230024002791F803C00CF00F0591F853
:100A500003C00CF0100CBCF1000F03D091F802C0E1
:100A60004CEA050591F800C0BCF1000F31D01468C4
:100A700000202BE04FF0010C0CFA00F3B1F800C09D
:100A80000CEA03069E4220D183004FF00F0C0CFAB3
:100A900003F7BC4305FA03FC4CEA040491F803C0D5
:100AA000BCF1280F06D14FF0010C0CFA00FCC2F883
:100AB00014C00AE091F803C0BCF1480F05D14FF013
:100AC000010C0CFA00FCC2F810C0401C0828D1D35D
:100AD0001460B1F800C0BCF1FF0F34DD5468002091
:100AE0002EE000F1080C4FF0010808FA0CF3B1F801
:100AF00000C00CEA03069E4221D183004FF00F0C88
:100B00000CFA03F7BC4305FA03FC4CEA040491F821
:100B100003C0BCF1280F05D100F1080C08FA0CF84D
:100B2000C2F8148091F803C0BCF1480F07D100F15E
:100B3000080C4FF0010808FA0CF8C2F81080401CAD
:100B40000828CED35460BDE8F0814FF6FF710180D4
:100B5000022181700421C170704702460020936811
:100B60000B400BB1012000E000207047014688686F
:100B700080B2704702460020D3680B400BB10120C1
:100B800000E0002070470146C86880B270470161EC
:100B90007047416170470AB1016100E041617047EF
:100BA000C16070474FF480320A4382618161826183
:100BB00082698269704702460020434B18684FF6ED
:100BC0008073184040EA021008433F4B186070479A
:100BD0003E49C8617047F0B50A4600230024002151
:100BE000002500F00046B6F1004F02D1364EF16903
:100BF00001E0354E7168C0F3034583B200F440163E
:100C0000B6F5401F08D121F070612F4E766826F0AE
:100C100070662D4F7E6012E000F48016B6F5801FDE
:100C200006D1032606FA05F4A14341F0706106E0FF
:100C3000460D360103FA06F6B14341F0706122B168
:100C4000460D360103FA06F6314300F00046B6F1D0
:100C5000004F02D11C4EF16101E01B4E7160F0BDEE
:100C600030B500228B071C0F0F2303FA04F2164B3A
:100C700008338C1053F824309343134C08348D10F0
:100C800044F8253023468C1053F824308C07240F69
:100C900000FA04F423430C4C08348D1044F825303A
:100CA00030BD0A49DC31086070470000000801408F
:100CB000000C0140001001400014014000180140E8
:100CC000001C0140002001400000014000002042C3
:100CD000FB48006840F00100F94908600846406898
:100CE000F8490840F649486008460068F649084057
:100CF000F34908600846006820F480200860084630
:100D0000406820F4FE0048600846006820F0A050CB
:100D100008604FF47F0088600020C8627047E8498F
:100D2000096821F48031E64A11601146096821F40E
:100D300080211160B0F5803F03D0B0F5802F0ED137
:100D400006E0DF49096841F48031DD4A116007E0BF
:100D5000DB49096841F4A021D94A116000E000BFD5
:100D600000BF704710B501460022002300204A1141
:100D7000012A02D1D24C236806E0022A02D1D04CCB
:100D8000236A01E0CE4C636A01F01F020124944003
:100D90001C400CB1012000E0002010BD38B500203F
:100DA00000900024002500BF3120FFF7DBFF05463F
:100DB0000098401C00900098B0F5A06F01D0002D65
:100DC000F2D03120FFF7CEFF08B1012400E000246B
:100DD000204638BD01460020B94A106820F0F800CE
:100DE00040EAC10010607047B84908607047024689
:100DF0000020B34B586820F4741042EA01031843F2
:100E0000AF4B58607047B1490866704702460020F2
:100E1000AB4BD86AAE4B184042EA01031843A84BCB
:100E2000D862704701460020A54AD06A20F0F00041
:100E30000843D062704701460020A14AD06A20F4DE
:100E400070600843D0627047A049886670470146C9
:100E500000209B4AD06A20F470400843D06270475B
:100E60009A490867704701460020954A506820F06B
:100E700003000843506070479148406800F00C0040
:100E80007047014600208E4A506820F0F000084369
:100E90005060704701460020894A506820F4E060A5
:100EA00008435060704701460020854A506820F48E
:100EB000605040EAC1005060704729B1804A527AC0
:100EC00002437F4B5A7204E07D4A527A82437C4B44
:100ED0005A7270477D49D83108607047014600203A
:100EE000774A506820F44040084350607047794981
:100EF000086070477749091D086070470021704AF3
:100F0000203211706E4A82F82010012802D0042885
:100F10000AD104E001216A4A2032117005E005215E
:100F2000674A2032117000E000BF00BF70476A4975
:100F3000086070476249096A0143614A116270475B
:100F400065494439086070472DE9F04100210022CD
:100F5000002500230026002400278C46DFF860814E
:100F6000D8F8048008F00C0121B1042907D0082921
:100F700059D109E0DFF86481C0F8008058E0DFF85B
:100F80006081C0F8008053E0DFF83481D8F8048035
:100F900008F47012DFF82881D8F8048008F480354E
:100FA000920C0D2A01D0921C00E0062235B9DFF820
:100FB000348102FB08F8C0F8008033E0DFF80081DC
:100FC000D8F82C8008F48036DFF8F480D8F82C802C
:100FD00008F00F0808F1010446B9DFF80481B8FBF6
:100FE000F4F808FB02F8C0F800801BE0DFF8D080BE
:100FF000D8F82C80C8F3031808F10107DFF8C08087
:10100000D8F82C80C8F3032808F1020CDFF8D08050
:10101000B8FBF7F808FB0CF8B8FBF4F808FB02F88B
:10102000C0F8008004E0DFF8B480C0F8008000BFA2
:1010300000BFDFF88C80D8F8048008F0F0010909BF
:10104000DFF8A48018F80130D0F8008028FA03F8FF
:10105000C0F80480DFF86880D8F8048008F4E06104
:10106000090ADFF8848018F80130D0F8048028FAE3
:1010700003F8C0F80880DFF84880D8F8048008F446
:101080006051C90ADFF8608018F80130D0F8048098
:1010900028FA03F8C0F80C80DFF82480D8F8048020
:1010A00008F44041890BDFF8448018F80130D0F88B
:1010B0000C80B8FBF3F8C0F81080BDE8F0810000A8
:1010C000001002400000FFF0FFFFF6FE0000424269
:1010D000F0FFFEFFC40542428004424200127A0043
:1010E00040787D0100093D001E0000202E000020F8
:1010F00029B1354A52690243334B5A6104E0324AFE
:1011000052698243304B5A61704729B12E4A926925
:1011100002432D4B9A6104E02B4A926982432A4B89
:101120009A61704729B1284AD2690243264BDA6195
:1011300004E0254AD2698243234BDA61704729B122
:10114000214A926A0243204B9A6204E01E4A926A44
:1011500082431D4B9A62704729B11B4AD2680243F1
:10116000194BDA6004E0184AD2688243164BDA6001
:10117000704729B1144A12690243134B1A6104E003
:10118000114A12698243104B1A6170470F49086077
:1011900070470F49C86470470B49C87170470A48C7
:1011A000406A40F08070084948627047014600205C
:1011B000054A92680A400AB1012000E00020704709
:1011C000014988727047000000100240400442420A
:1011D0000000424210B50446FB48844209D1012177
:1011E0008803FFF7B9FF00214FF48040FFF7B4FFF9
:1011F00032E0F648844209D101214804FFF7B9FFE3
:1012000000214FF40030FFF7B4FF25E0F04884429E
:1012100009D101218804FFF7ACFF00214FF48020A1
:10122000FFF7A7FF18E0EB48844209D10121C80469
:10123000FFF79FFF00214FF40020FFF79AFF0BE01C
:10124000E548844208D101210805FFF792FF0021FB
:101250004FF48010FFF78DFF10BD2DE9F04786B0E9
:1012600005460E460024A24600BFA1460027B089CD
:1012700000B100BF2F462C8A4CF6FF700440F08866
:1012800004432C82AC894EF6F3100440B0883189B7
:101290000843718908430443AC81AC8A4FF6FF4090
:1012A0000440B0890443AC8201A8FFF74DFEC64854
:1012B000874202D1DDF810A001E0DDF80CA0A8897A
:1012C00000F4004040B10AEBCA0000EB0A1031689C
:1012D0004900B0FBF1F807E00AEBCA0000EB0A1086
:1012E00031688900B0FBF1F86420B8FBF0F004012C
:1012F0002009642101FB1089A88900F4004040B155
:10130000322000EBC900B0FBF1F000F0070004430D
:1013100008E0322000EB09106421B0FBF1F000F08E
:101320000F0004432C8106B0BDE8F0874FF416513E
:10133000016000218180C18001810C214181002157
:101340008181704710B502460020108A4FF2FF03DA
:1013500018400B884C8823438C882343CC88234334
:101360001843108210BD0021018041808180C1801E
:10137000704721B1828942F40052828104E082895F
:101380004DF6FF731A4082817047F0B50346002482
:1013900000260025002040F66A17B94200D100BFA0
:1013A0001846C1F3421401F01F06012707FA06F59B
:1013B000012C01D10C3004E0022C01D1103000E0EE
:1013C00014301AB107682F43076002E00768AF4383
:1013D0000760F0BD1AB1838A0B43838202E0838ADF
:1013E0008B4383827047028A4FF6F0731A40028261
:1013F000028A0A430282704782894FF2FF731A40C1
:10140000828182890A438281704721B1828942F0B8
:101410000202828104E082894FF6FD731A408281C4
:101420007047028A4FF6DF731A400282028A0A432B
:101430000282704721B1028A42F48042028204E0B3
:10144000028A4BF6FF731A4002827047C1F308020A
:101450008280704701468888C0F308007047818900
:1014600041F0010181817047028BD2B20283028B6D
:1014700042EA012202837047028B02F47F42028318
:10148000028B0A430283704721B1828A42F0200214
:10149000828204E0828A4FF6DF731A4082827047AC
:1014A00021B1828A42F01002828204E0828A4FF6E1
:1014B000EF731A408282704721B1828A42F008029B
:1014C000828204E0828A4FF6F7731A408282704764
:1014D00021B1828942F40042828103E08289C2F311
:1014E0000E028281704721B1828A42F400628282B8
:1014F00004E0828A4FF2FF731A4082827047828A28
:101500004FF6FB731A408282828A0A4382827047B6
:1015100021B1828A42F00202828204E0828A4FF67E
:10152000FD731A408282704702460020B1F5007FA9
:1015300000D100BF13880B400BB1012000E0002058
:10154000704701F40072B2F5007F00D100BFCA43BA
:101550000280704770B50246002400230025002059
:1015600040F66A16B14200D100BFC1F3421501F046
:101570001F03012606FA03F3012D02D19689334099
:1015800006E0022D02D1168A334001E0968A3340EC
:101590000C12012606FA04F41688344013B10CB17B
:1015A000012000E0002070BD10B50022002340F6AD
:1015B0006A14A14200D100BF0A1201249440A3B2D0
:1015C000DC43048010BD00000038014000440040AE
:1015D00000480040004C00400050004070477047F9
:1015E000704770477047754600F02CF8AE4605000E
:1015F0006946534620F00700854618B020B5FFF72E
:1016000039F9BDE820404FF000064FF000074FF0D9
:1016100000084FF0000B21F00701AC46ACE8C00910
:10162000ACE8C009ACE8C009ACE8C0098D46704719
:1016300010B50446AFF300802046BDE81040FEF729
:10164000BEBD000000487047FC0000206C1600087A
:1016500000000020340000006C010008A016000803
:10166000340000202C0700008801000800A24A0472
:101670000000000000000000010203040607080942
:101680000000000000000000000000000000010257
:101690000304010203040607080902040608000007
:0400000508000131BD
:00000001FF
