:020000040800F2
:10000000880A0020ED0100080F0B0008D70A00083D
:100010000D0B0008390300088911000800000000DA
:10002000000000000000000000000000A50C000817
:10003000350A000800000000910B0008910D00082F
:10004000070200080702000807020008070200086C
:10005000070200080702000807020008070200085C
:10006000070200080702000807020008070200084C
:10007000070200080702000807020008070200083C
:10008000070200080702000807020008070200082C
:100090003D030008070200080702000807020008E5
:1000A000070200080702000807020008070200080C
:1000B00007020008F10D0008070200080702000807
:1000C00007020008070200080702000807020008EC
:1000D00007020008FD0E0008610F0008C50F0008A8
:1000E00007020008070200080702000800000000DD
:1000F0000000000000000000000000000000000000
:1001000000000000000000000702000807020008CD
:10011000350E0008990E00080702000807020008C3
:10012000070200080702000807020008070200088B
:10013000070200080702000807020008070200087B
:1001400007020008810400080702000807020008EF
:1001500000F002F800F03AF80AA090E8000C82449F
:100160008344AAF10107DA4501D100F02FF8AFF27C
:10017000090EBAE80F0013F0010F18BFFB1A43F085
:1001800001031847A8110000C8110000103A24BF4D
:1001900078C878C1FAD8520724BF30C830C144BFEC
:1001A00004680C607047000000230024002500262E
:1001B000103A28BF78C1FBD8520728BF30C148BFCA
:1001C0000B6070471FB51FBD10B510BD00F06EF875
:1001D0001146FFF7F7FF01F01DF800F0A0F803B497
:1001E000FFF7F2FF03BC00F0D0FF00000948804792
:1001F00009480047FEE7FEE7FEE7FEE7FEE7FEE709
:10020000FEE7FEE7FEE7FEE704480549054A064B20
:1002100070470000950D0008510100088804002077
:10022000880A002088060020880600207047000009
:100230000FB4044910B503AA029800F009F810BCE5
:100240005DF814FB28000020704770477047704726
:10025000074B70B50D467B4400F011F80446284664
:1002600000F020F810B14FF0FF3070BD204670BD97
:10027000A30F000001694A1C02610878704700B5AD
:100280008FB0CDE901310021059105497944CDE9CF
:1002900003101146684600F02EF80FB000BD0000B4
:1002A000E5FFFFFF007B00F080007047754600F01F
:1002B0003FF8AE4605006946534620F007008546E4
:1002C00018B020B5FFF7A0FFBDE820404FF00006B2
:1002D0004FF000074FF000084FF0000B21F007012E
:1002E000AC46ACE8C009ACE8C009ACE8C009ACE871
:1002F000C0098D4670472DE9F04106460024D6E935
:100300000170F5688046304603E04146B847641CFA
:100310003046A8470028F8D12046BDE8F08110B546
:100320000446AFF300802046BDE81040FFF757BFFA
:100330000048704728040020FEE7000000B585B0A3
:100340006A460021074800F035FA07A0FFF770FF62
:100350000098512803D107490020C1F8940105B045
:1003600000BD00000064004063616E31BDF8D6D06E
:10037000B6CF0000000023422DE9F04788468146B1
:100380008AB09A4617460121092000F01BFC012182
:10039000480600F0FFFB0121880600F0FBFB4FF44C
:1003A0000050ADF81C0003208DF81E001820324CC0
:1003B0008DF81F0007A9204600F03DFBA114ADF801
:1003C0001C1048218DF81F1007A9204600F033FBB0
:1003D0002A4E304600F072F800248DF806408DF861
:1003E000084001258DF807408DF809508DF802402E
:1003F0008DF80A408DF803908DF804708DF80B404D
:100400008DF80580ADF800A06946304600F0DAF8B6
:100410000E208DF816004FF42A60ADF80C004FF452
:100420002C60ADF80E004FF42E60ADF810004FF4C4
:1004300030608DF817508DF81840ADF81200ADF807
:1004400014508DF8195003A800F04EF80122102125
:10045000304600F0AFF841208DF820008DF82140A3
:100460008DF822408DF8235008A800F055FB0AB003
:100470000020BDE8F0870000000C0140006800404B
:1004800000B585B06A460121074800F093F907A03E
:10049000FFF7CEFE0098552803D107490120C1F887
:1004A000940105B000BD00000068004063616E3239
:1004B000BDF8D6D0B6CF000000002342094910B5E0
:1004C00088424FF0010101D14C0601E04FF08064F9
:1004D000204600F06BFB2046BDE81040002100F0F4
:1004E00065BB000000640040F0B5827A2F4D012109
:1004F00091402A6842F001022A602C4E1C36326874
:100500008A433260294A047B294B0C32A4B914680F
:100510008C4314604488C78844EA0744877A03EB15
:10052000C707C7F840460488878844EA0744877AA3
:1005300003EBC707C7F84446047B012C12D11468AB
:100540000C431460847A026803EBC4044FEA32421D
:10055000C4F84026847A426803EBC4034FEA32426F
:10056000C3F84426114AC37A121D002B136806D023
:100570000B4313600D4A0389143213B104E08B431B
:10058000F7E713688B4313600389012B02D11368CB
:100590000B431360407B012802D130680843306070
:1005A000286820F001002860F0BD000000660040CF
:1005B00000600040002A426901D00A4300E08A43FB
:1005C0004261704710B50368002223F00203036004
:1005D000036843F0010303604FF6FF7300E0521C11
:1005E0004468E40701D19A42F9D14268D2073ED06B
:1005F0008A79012A02683CD022F080020260CA791E
:10060000012A026838D022F0400202600A7A012AE8
:10061000026834D022F0200202604A7A012A02687D
:1006200030D022F0100202608A7A012A02682CD0AF
:1006300022F008020260CA7A012A026828D022F059
:10064000040202608A78CC78920742EA04620C794C
:1006500042EA04424C79098842EA0452491E0A439C
:10066000C261016821F001010160002114E0002055
:1006700010BD42F08002C1E742F04002C5E742F0FF
:100680002002C9E742F01002CDE742F00802D1E7AC
:1006900042F00402D5E7491C4268D20701D09942D2
:1006A000F9D14068C007E2D1012010BD2DE9F04F1B
:1006B00089B08A4681461F46904601210520DDF813
:1006C00048B000F07FFA0121480600F063FA4FF4C9
:1006D0008050ADF81C0003208DF81E001820334C0C
:1006E0008DF81F0007A9204600F0A5F9E114ADF828
:1006F0001C1048218DF81F1007A9204600F09BF917
:100700002B4E3046FFF7DAFE684600F09AF80024D8
:100710008DF806408DF8084001258DF807408DF8CA
:1007200009508DF802B08DF80A408DF803908DF8CD
:1007300004808DF80B408DF805A0ADF80070694677
:100740003046FFF73FFF4FF42260ADF80C004FF446
:100750002460ADF80E004FF42660ADF810008DF85F
:1007600016404FF428608DF817508DF81840ADF8FA
:100770001200ADF814408DF8195003A8FFF7B4FE2D
:10078000012202213046FFF715FF14208DF82000CA
:100790008DF821508DF822408DF8235008A800F0E4
:1007A000BBF909B00020BDE8F08F0000000801404F
:1007B0000064004010B500EB0113D3F8B04114F011
:1007C00004041472D3F8B04133D0E4085460D3F871
:1007D000B04104F002045472D3F8B44104F00F04A1
:1007E0009472D3F8B441240AD474D3F8B841D472C3
:1007F000D3F8B841240A1473D3F8B841240C5473C5
:10080000D3F8B841240E9473D3F8BC41D473D3F811
:10081000BC41240A1474D3F8BC41240C5474D3F89A
:10082000BC311B0E937439B1016941F020010161A3
:1008300010BD640D1460CAE7C16841F02001C160B9
:1008400010BD00218171C171017241728172C1724A
:100850008170C17003210171022141710121018068
:10086000704730B50246002093685B0108D4906859
:10087000000101D5012003E09068C00037D50220B7
:1008800002EB0012D2F8803103F00103C2F880318C
:100890000B7A73B3D2F880414D681C434B7A43EA1C
:1008A000C5031C43C2F880418B7A03F00F038B729F
:1008B000D2F8843123F00F03C2F88431D2F88431A6
:1008C0008C7A2343C2F88431CB7ACC6843EA042380
:1008D000C2F88831CB7B096943EA0121C2F88C1147
:1008E000D2F8801141F00101C2F8801130BD04201E
:1008F00030BDD2F880314C7A23430C8843EA44530C
:10090000C2F88031D0E70000002221B1012905D0D2
:10091000022906D112E08268114801E0826811487C
:1009200002401149501A8A4214D00ADCA2B16FF079
:10093000806010180FD002280CD10FE082680B489D
:10094000EEE7B0F5007F09D00949401803D0B0F5B3
:10095000003F03D0002070470220704701207047FD
:100960000300000400030008000100080000031059
:100970000001FFF7F0B585B0002251238DF8082063
:1009800000938DF8092012238DF80A10019369460F
:10099000835C8C18521C92B2E372082AF8D30C4F75
:1009A0003846FFF75EFF0646002440F6FF7501E07B
:1009B000641CA4B231463846FFF7A6FF08B9AC4222
:1009C000F6D3AC4202D3012005B0F0BD0020FBE716
:1009D00000680040F0B585B0002255238DF808204E
:1009E00000938DF8092012238DF80A1001936946AF
:1009F000835C8C18521C92B2E372082AF8D30C4F15
:100A00003846FFF72EFF0646002440F6FF7501E04A
:100A1000641CA4B231463846FFF776FF08B9AC42F1
:100A2000F6D3AC4202D3012005B0F0BD0020FBE7B5
:100A3000006400407047F0B5CC78002204F00F034A
:100A4000E40601D58C7823430C784FF00F0C14F09A
:100A5000FF0F4FF0010E1BD005680E880EFA02F44E
:100A60002640A64210D196000CFA06F725EA0707A1
:100A700003FA06F5CE783D43282E02D0482E02D048
:100A800002E0446100E00461521C082AE5D30560DD
:100A90000A88FF2A1CD94468002202F108060EFACF
:100AA00006F50E882E40AE420ED196000CFA06F7DF
:100AB000BC4303FA06F7CE783C43282E00D14561AB
:100AC000CE78482E00D10561521C082AE5D3446037
:100AD000F0BD01617047FEE738B50121402000F00C
:100AE00071F82020ADF8000010208DF803000320DD
:100AF000054C8DF8020069462046FFF79CFF202137
:100B00002046FFF7E6FF38BD00180140FEE77047BA
:100B10004FF4A06000F032B830B50F23C2780178EE
:100B20000125F2B1144A126801F1E02102F4E062F9
:100B3000C2F5E062120AC2F10404D3404278A24036
:100B400084781C401443220181F80024007800F0CE
:100B50001F018D404009800000F1E020C0F80051E5
:100B600030BD01F01F0085404809800000F1E02001
:100B7000C0F8805130BD00000CED00E00249084390
:100B800002490860704700000000FA050CED00E023
:100B900070470000044A0029D16901D0014300E0F8
:100BA0008143D1617047000000100240044A0029CF
:100BB000116901D0014300E08143116170470000D9
:100BC00000100240044A0029916901D0014300E06D
:100BD000814391617047000000100240F0B52C4B3A
:100BE00059682C4A11F00C014FF00F0604D02A4C22
:100BF000042903D0082903D0026028E0046026E01D
:100C000059685A6806EA914102F480320D2901D0F0
:100C1000891C00E00621BAB1DA6A12F4803FDA6A70
:100C200002F00F0202F101020AD0DD6AC5F30317D8
:100C3000DD6A7F1CB4FBF7F4C5F30325AD1C6C43E0
:100C4000B4FBF2F24A43D7E7144A514301605968B2
:100C5000134A06EA1111545C0168E14041605C6886
:100C6000072505EA1424145D21FA04F484605C6805
:100C700005EAD424125DD140C1605A68032303EA17
:100C80009232074B1B1F9A5CB1FBF2F10161F0BD80
:100C90000010024000127A0040787D0100093D00FA
:100CA00030000020704700000CB500222E48009252
:100CB0000192016841F4803101604FF4A063016842
:100CC00001F4003101910099491C0091019911B979
:100CD00000999942F3D10168890342D5012101911C
:100CE00022490A6842F010020A600A6822F00302F0
:100CF0000A600A6842F002020A6041684160416885
:100D00004160416841F480614160C16A184A114004
:100D1000C162C16A174A1143C162016841F0806132
:100D2000016001680901FCD5416821F47C11416032
:100D3000416841F4E8114160016841F0807101604F
:100D400001688901FCD5416821F0030141604168D7
:100D500041F0020141604168C1F381010229FAD1E9
:100D60000CBD01920CBD00000010024000200240AA
:100D700000F0FEFF440601004FF0E021042808695E
:100D800003D020F004000861704740F00400FAE747
:100D900070470000124810B5016841F00101016080
:100DA0004168104A1140416001680F4A11400160DA
:100DB000016821F480210160416821F4FE01416055
:100DC000016821F0A05101604FF47F018160002192
:100DD000C162FFF769FF05494FF00060086010BD70
:100DE000001002400000FFF0FFFFF6FE08ED00E0FB
:100DF00010B5074C0121204600F00FF8002805D05F
:100E00002046BDE81040012100F004B810BD0000EC
:100E100000040040C9430182704702460020138A43
:100E200092890B4202EA010202D0002A00D001207E
:100E30007047000070B5154C40F22551204600F077
:100E40000EF900280ED0204600F096F9104AC1B2E3
:100E50005089030406D444044FF0000306D50A2940
:100E600001D0538170BD0120907070BD0D2909D053
:100E7000C0F30D04074D401C80B229555081C7288E
:100E8000EFD870BD40F48040508170BD004C0040F0
:100E9000180000209802002070B5154C40F2255132
:100EA000204600F0DCF800280ED0204600F064F95F
:100EB000104AC1B29089030406D444044FF00003E1
:100EC00006D50A2901D0938170BD0120D07070BD74
:100ED0000D2909D0C0F30D04074D401C80B22955DF
:100EE0009081C728EFD870BD40F48040908170BDDC
:100EF00000500040180000206003002070B5154C21
:100F000040F22551204600F0AAF800280ED02046D5
:100F100000F032F9104AC1B29088030406D44404A8
:100F20004FF0000306D50A2901D0938070BD40F42C
:100F300000400DE00D2909D0C0F30D04074D401C01
:100F400080B229559080C728EFD870BD40F480400A
:100F5000908070BD00380140180000204000002043
:100F600070B5154C40F22551204600F078F8002865
:100F70000ED0204600F000F9104AC1B2D088030418
:100F800006D444044FF0000306D50A2901D0D380CB
:100F900070BD0120107070BD0D2909D0C0F30D0483
:100FA000074D401C80B22955D080C728EFD870BDAE
:100FB00040F48040D08070BD004400401800002004
:100FC0000801002070B51A4D40F22551284600F066
:100FD00046F8002818D0284600F0CEF8C4B22146C2
:100FE000284600F0CDF84021284600F031F80128CD
:100FF000F9D110490889020406D443044FF00002D5
:1010000006D50A2C01D00A8170BD0120487070BD40
:101010000D2C09D0C0F30D03074D401C80B2EC54D9
:101020000881C728EFD870BD40F48040088170BDAA
:101030000048004018000020D001002000298189CC
:1010400002D041F4005101E021F400518181704748
:101050000246002012880A4200D00120704770B575
:1010600001F01F0501260024C1F3421306FA05F220
:10107000012B0FD0022B0FD0838A4FEA1121008859
:10108000134206FA01F600EA060001D000B101247D
:10109000204670BD8389F0E7038AEEE710B5C1F3FF
:1010A000421301F01F040121A140012B07D0022BA4
:1010B00007D01430002A026805D00A4304E00C303F
:1010C000F8E71030F6E78A43026010BD30B50446F9
:1010D000008A85B00D464CF6FF710840E98801434F
:1010E0002182A0894EF6F3110840A9882A8911436C
:1010F0006A8902431143A181A08A4FF6FF4108404B
:10110000A9890143A1826846FFF768FD1948844216
:1011100001D1039800E00298A189090400EBC00105
:1011200001EB0010296801D5490000E08900B0FBFF
:10113000F1F06422B0FBF2F109010B096FF0180520
:101140006B4300EB8300A3891D044FF0320306D5E7
:1011500003EBC000B0FBF2F000F0070005E003EB8A
:101160000010B0FBF2F000F00F000843208105B042
:1011700030BD0000003801408088C0F3080070478F
:10118000C1F3080181807047FEE7704710B56FF02A
:101190000400FFF7F1FD094809490068B0FBF1F0D0
:1011A0000849C0B200EB40020870C2EBC0104FF615
:1011B000FF7202EAC000488010BD0000000000205D
:1011C00000127A00140000200B49498848434FF070
:1011D000E021486100238B61086940F0010008614B
:1011E0000869C20701D0C003FAD5086920F00100E0
:1011F00008618B61704700001400002004490A88D0
:101200005206FCD5024AC1B2121D1180704700007F
:10121000003801400EB51BA0D0E90010CDE9011047
:10122000FFF7B4FFFFF758FCFFF772FC4FF41650BE
:1012300000F02CF801214806FFF7ACFC01218806DC
:10124000FFF7A8FC002408231A4607212046009433
:10125000FFF72CFA08231A46072100200094FFF715
:101260008BF840F2DC54042101A8FFF7B3FB2046C1
:10127000FFF7AAFF082101A8FFF77CFB2046FFF734
:10128000A3FFF0E7010203040506070870B5054651
:1012900086B0012144F20500FFF794FC4FF4007082
:1012A000ADF8100003248DF8124018201D4E8DF863
:1012B000130004A93046FFF7BEFB3015ADF810004F
:1012C00004208DF8130004A93046FFF7B4FB252055
:1012D0008DF814008DF815408DF8164001208DF81A
:1012E000170005A8FFF718FC0020ADF80400ADF8C2
:1012F0000600ADF80800ADF80C000C200A4CADF863
:101300000A00009569462046FFF7E0FE012240F200
:1013100025512046FFF7C2FE01212046FFF78EFE31
:1013200006B070BD00080140003801404C130008B1
:1013300000000020400000008C0100088C13000811
:1013400040000020480A0000A801000800A24A044A
:101350000000000000000000010203040607080965
:10136000000000000000000000000000000000007D
:101370000000000000000000020406080000000059
:0C1380000102030401020304060708092F
:04000005080001519D
:00000001FF
